{
  "_format": "hh-sol-artifact-1",
  "contractName": "DegenToken",
  "sourceName": "contracts/DegenToken.sol",
  "abi": [
    {
      "inputs": [],
      "stateMutability": "nonpayable",
      "type": "constructor"
    },
    {
      "anonymous": false,
      "inputs": [
        {
          "indexed": true,
          "internalType": "address",
          "name": "owner",
          "type": "address"
        },
        {
          "indexed": true,
          "internalType": "address",
          "name": "spender",
          "type": "address"
        },
        {
          "indexed": false,
          "internalType": "uint256",
          "name": "value",
          "type": "uint256"
        }
      ],
      "name": "Approval",
      "type": "event"
    },
    {
      "anonymous": false,
      "inputs": [
        {
          "indexed": true,
          "internalType": "address",
          "name": "previousOwner",
          "type": "address"
        },
        {
          "indexed": true,
          "internalType": "address",
          "name": "newOwner",
          "type": "address"
        }
      ],
      "name": "OwnershipTransferred",
      "type": "event"
    },
    {
      "anonymous": false,
      "inputs": [
        {
          "indexed": true,
          "internalType": "address",
          "name": "from",
          "type": "address"
        },
        {
          "indexed": true,
          "internalType": "address",
          "name": "to",
          "type": "address"
        },
        {
          "indexed": false,
          "internalType": "uint256",
          "name": "value",
          "type": "uint256"
        }
      ],
      "name": "Transfer",
      "type": "event"
    },
    {
      "inputs": [
        {
          "internalType": "address",
          "name": "owner",
          "type": "address"
        },
        {
          "internalType": "address",
          "name": "spender",
          "type": "address"
        }
      ],
      "name": "allowance",
      "outputs": [
        {
          "internalType": "uint256",
          "name": "",
          "type": "uint256"
        }
      ],
      "stateMutability": "view",
      "type": "function"
    },
    {
      "inputs": [
        {
          "internalType": "address",
          "name": "spender",
          "type": "address"
        },
        {
          "internalType": "uint256",
          "name": "amount",
          "type": "uint256"
        }
      ],
      "name": "approve",
      "outputs": [
        {
          "internalType": "bool",
          "name": "",
          "type": "bool"
        }
      ],
      "stateMutability": "nonpayable",
      "type": "function"
    },
    {
      "inputs": [
        {
          "internalType": "address",
          "name": "account",
          "type": "address"
        }
      ],
      "name": "balanceOf",
      "outputs": [
        {
          "internalType": "uint256",
          "name": "",
          "type": "uint256"
        }
      ],
      "stateMutability": "view",
      "type": "function"
    },
    {
      "inputs": [
        {
          "internalType": "uint256",
          "name": "amount",
          "type": "uint256"
        }
      ],
      "name": "burnDegen",
      "outputs": [],
      "stateMutability": "nonpayable",
      "type": "function"
    },
    {
      "inputs": [],
      "name": "decimals",
      "outputs": [
        {
          "internalType": "uint8",
          "name": "",
          "type": "uint8"
        }
      ],
      "stateMutability": "view",
      "type": "function"
    },
    {
      "inputs": [
        {
          "internalType": "address",
          "name": "spender",
          "type": "address"
        },
        {
          "internalType": "uint256",
          "name": "subtractedValue",
          "type": "uint256"
        }
      ],
      "name": "decreaseAllowance",
      "outputs": [
        {
          "internalType": "bool",
          "name": "",
          "type": "bool"
        }
      ],
      "stateMutability": "nonpayable",
      "type": "function"
    },
    {
      "inputs": [],
      "name": "gameOwner",
      "outputs": [
        {
          "internalType": "address",
          "name": "",
          "type": "address"
        }
      ],
      "stateMutability": "view",
      "type": "function"
    },
    {
      "inputs": [
        {
          "internalType": "address",
          "name": "_owner",
          "type": "address"
        }
      ],
      "name": "getDegenBalance",
      "outputs": [
        {
          "internalType": "uint256",
          "name": "",
          "type": "uint256"
        }
      ],
      "stateMutability": "view",
      "type": "function"
    },
    {
      "inputs": [
        {
          "internalType": "address",
          "name": "spender",
          "type": "address"
        },
        {
          "internalType": "uint256",
          "name": "addedValue",
          "type": "uint256"
        }
      ],
      "name": "increaseAllowance",
      "outputs": [
        {
          "internalType": "bool",
          "name": "",
          "type": "bool"
        }
      ],
      "stateMutability": "nonpayable",
      "type": "function"
    },
    {
      "inputs": [
        {
          "internalType": "address",
          "name": "_player",
          "type": "address"
        },
        {
          "internalType": "uint256",
          "name": "_amount",
          "type": "uint256"
        }
      ],
      "name": "mintDegen",
      "outputs": [],
      "stateMutability": "nonpayable",
      "type": "function"
    },
    {
      "inputs": [],
      "name": "name",
      "outputs": [
        {
          "internalType": "string",
          "name": "",
          "type": "string"
        }
      ],
      "stateMutability": "view",
      "type": "function"
    },
    {
      "inputs": [],
      "name": "owner",
      "outputs": [
        {
          "internalType": "address",
          "name": "",
          "type": "address"
        }
      ],
      "stateMutability": "view",
      "type": "function"
    },
    {
      "inputs": [
        {
          "internalType": "uint8",
          "name": "_Item",
          "type": "uint8"
        }
      ],
      "name": "redeem",
      "outputs": [
        {
          "internalType": "bool",
          "name": "",
          "type": "bool"
        }
      ],
      "stateMutability": "payable",
      "type": "function"
    },
    {
      "inputs": [],
      "name": "renounceOwnership",
      "outputs": [],
      "stateMutability": "nonpayable",
      "type": "function"
    },
    {
      "inputs": [],
      "name": "showStore",
      "outputs": [
        {
          "internalType": "string",
          "name": "",
          "type": "string"
        }
      ],
      "stateMutability": "pure",
      "type": "function"
    },
    {
      "inputs": [],
      "name": "symbol",
      "outputs": [
        {
          "internalType": "string",
          "name": "",
          "type": "string"
        }
      ],
      "stateMutability": "view",
      "type": "function"
    },
    {
      "inputs": [],
      "name": "totalSupply",
      "outputs": [
        {
          "internalType": "uint256",
          "name": "",
          "type": "uint256"
        }
      ],
      "stateMutability": "view",
      "type": "function"
    },
    {
      "inputs": [
        {
          "internalType": "address",
          "name": "to",
          "type": "address"
        },
        {
          "internalType": "uint256",
          "name": "amount",
          "type": "uint256"
        }
      ],
      "name": "transfer",
      "outputs": [
        {
          "internalType": "bool",
          "name": "",
          "type": "bool"
        }
      ],
      "stateMutability": "nonpayable",
      "type": "function"
    },
    {
      "inputs": [
        {
          "internalType": "address",
          "name": "to",
          "type": "address"
        },
        {
          "internalType": "uint256",
          "name": "amount",
          "type": "uint256"
        }
      ],
      "name": "transferDegen",
      "outputs": [
        {
          "internalType": "bool",
          "name": "",
          "type": "bool"
        }
      ],
      "stateMutability": "nonpayable",
      "type": "function"
    },
    {
      "inputs": [
        {
          "internalType": "address",
          "name": "from",
          "type": "address"
        },
        {
          "internalType": "address",
          "name": "to",
          "type": "address"
        },
        {
          "internalType": "uint256",
          "name": "amount",
          "type": "uint256"
        }
      ],
      "name": "transferFrom",
      "outputs": [
        {
          "internalType": "bool",
          "name": "",
          "type": "bool"
        }
      ],
      "stateMutability": "nonpayable",
      "type": "function"
    },
    {
      "inputs": [
        {
          "internalType": "address",
          "name": "newOwner",
          "type": "address"
        }
      ],
      "name": "transferOwnership",
      "outputs": [],
      "stateMutability": "nonpayable",
      "type": "function"
    }
  ],
  "bytecode": "0x60806040523480156200001157600080fd5b506040518060400160405280600581526020017f446567656e0000000000000000000000000000000000000000000000000000008152506040518060400160405280600381526020017f44474e0000000000000000000000000000000000000000000000000000000000815250816003908051906020019062000096929190620001e7565b508060049080519060200190620000af929190620001e7565b505050620000d2620000c66200011960201b60201c565b6200012160201b60201c565b33600660006101000a81548173ffffffffffffffffffffffffffffffffffffffff021916908373ffffffffffffffffffffffffffffffffffffffff160217905550620002fc565b600033905090565b6000600560009054906101000a900473ffffffffffffffffffffffffffffffffffffffff16905081600560006101000a81548173ffffffffffffffffffffffffffffffffffffffff021916908373ffffffffffffffffffffffffffffffffffffffff1602179055508173ffffffffffffffffffffffffffffffffffffffff168173ffffffffffffffffffffffffffffffffffffffff167f8be0079c531659141344cd1fd0a4f28419497f9722a3daafe3b4186f6b6457e060405160405180910390a35050565b828054620001f590620002c6565b90600052602060002090601f01602090048101928262000219576000855562000265565b82601f106200023457805160ff191683800117855562000265565b8280016001018555821562000265579182015b828111156200026457825182559160200191906001019062000247565b5b50905062000274919062000278565b5090565b5b808211156200029357600081600090555060010162000279565b5090565b7f4e487b7100000000000000000000000000000000000000000000000000000000600052602260045260246000fd5b60006002820490506001821680620002df57607f821691505b60208210811415620002f657620002f562000297565b5b50919050565b61247b806200030c6000396000f3fe60806040526004361061012a5760003560e01c8063862278c4116100ab578063a9d0e2e51161006f578063a9d0e2e514610435578063c9a12f3414610460578063dd62ed3e14610489578063dfbe250f146104c6578063f2fde38b146104ef578063f6b12f28146105185761012a565b8063862278c4146103285780638da5cb5b1461036557806395d89b4114610390578063a457c2d7146103bb578063a9059cbb146103f85761012a565b806332271faf116100f257806332271faf1461022a578063395093511461025a57806370a0823114610297578063715018a6146102d45780637c289e3d146102eb5761012a565b806306fdde031461012f578063095ea7b31461015a57806318160ddd1461019757806323b872dd146101c2578063313ce567146101ff575b600080fd5b34801561013b57600080fd5b50610144610543565b6040516101519190611825565b60405180910390f35b34801561016657600080fd5b50610181600480360381019061017c91906118e0565b6105d5565b60405161018e919061193b565b60405180910390f35b3480156101a357600080fd5b506101ac6105f8565b6040516101b99190611965565b60405180910390f35b3480156101ce57600080fd5b506101e960048036038101906101e49190611980565b610602565b6040516101f6919061193b565b60405180910390f35b34801561020b57600080fd5b50610214610631565b60405161022191906119ef565b60405180910390f35b610244600480360381019061023f9190611a36565b61063a565b604051610251919061193b565b60405180910390f35b34801561026657600080fd5b50610281600480360381019061027c91906118e0565b61099a565b60405161028e919061193b565b60405180910390f35b3480156102a357600080fd5b506102be60048036038101906102b99190611a63565b6109d1565b6040516102cb9190611965565b60405180910390f35b3480156102e057600080fd5b506102e9610a19565b005b3480156102f757600080fd5b50610312600480360381019061030d9190611a63565b610a2d565b60405161031f9190611965565b60405180910390f35b34801561033457600080fd5b5061034f600480360381019061034a91906118e0565b610a3f565b60405161035c919061193b565b60405180910390f35b34801561037157600080fd5b5061037a610aa3565b6040516103879190611a9f565b60405180910390f35b34801561039c57600080fd5b506103a5610acd565b6040516103b29190611825565b60405180910390f35b3480156103c757600080fd5b506103e260048036038101906103dd91906118e0565b610b5f565b6040516103ef919061193b565b60405180910390f35b34801561040457600080fd5b5061041f600480360381019061041a91906118e0565b610bd6565b60405161042c919061193b565b60405180910390f35b34801561044157600080fd5b5061044a610bf9565b6040516104579190611825565b60405180910390f35b34801561046c57600080fd5b50610487600480360381019061048291906118e0565b610c19565b005b34801561049557600080fd5b506104b060048036038101906104ab9190611aba565b610cb7565b6040516104bd9190611965565b60405180910390f35b3480156104d257600080fd5b506104ed60048036038101906104e89190611afa565b610d3e565b005b3480156104fb57600080fd5b5061051660048036038101906105119190611a63565b610d98565b005b34801561052457600080fd5b5061052d610e1c565b60405161053a9190611a9f565b60405180910390f35b60606003805461055290611b56565b80601f016020809104026020016040519081016040528092919081815260200182805461057e90611b56565b80156105cb5780601f106105a0576101008083540402835291602001916105cb565b820191906000526020600020905b8154815290600101906020018083116105ae57829003601f168201915b5050505050905090565b6000806105e0610e42565b90506105ed818585610e4a565b600191505092915050565b6000600254905090565b60008061060d610e42565b905061061a858285611015565b6106258585856110a1565b60019150509392505050565b60006012905090565b600060018260ff1614156107585760323073ffffffffffffffffffffffffffffffffffffffff166370a08231336040518263ffffffff1660e01b81526004016106839190611a9f565b60206040518083038186803b15801561069b57600080fd5b505afa1580156106af573d6000803e3d6000fd5b505050506040513d601f19601f820116820180604052508101906106d39190611b9d565b1015610714576040517f08c379a000000000000000000000000000000000000000000000000000000000815260040161070b90611c3c565b60405180910390fd5b61071f3360646105d5565b5061074e33600660009054906101000a900473ffffffffffffffffffffffffffffffffffffffff166032610602565b5060019050610995565b60028260ff1614156108745760193073ffffffffffffffffffffffffffffffffffffffff166370a08231336040518263ffffffff1660e01b815260040161079f9190611a9f565b60206040518083038186803b1580156107b757600080fd5b505afa1580156107cb573d6000803e3d6000fd5b505050506040513d601f19601f820116820180604052508101906107ef9190611b9d565b1015610830576040517f08c379a000000000000000000000000000000000000000000000000000000000815260040161082790611c3c565b60405180910390fd5b61083b3360196105d5565b5061086a33600660009054906101000a900473ffffffffffffffffffffffffffffffffffffffff166019610602565b5060019050610995565b60038260ff16141561099057600f3073ffffffffffffffffffffffffffffffffffffffff166370a08231336040518263ffffffff1660e01b81526004016108bb9190611a9f565b60206040518083038186803b1580156108d357600080fd5b505afa1580156108e7573d6000803e3d6000fd5b505050506040513d601f19601f8201168201806040525081019061090b9190611b9d565b101561094c576040517f08c379a000000000000000000000000000000000000000000000000000000000815260040161094390611c3c565b60405180910390fd5b61095733600f6105d5565b5061098633600660009054906101000a900473ffffffffffffffffffffffffffffffffffffffff16600f610602565b5060019050610995565b600090505b919050565b6000806109a5610e42565b90506109c68185856109b78589610cb7565b6109c19190611c8b565b610e4a565b600191505092915050565b60008060008373ffffffffffffffffffffffffffffffffffffffff1673ffffffffffffffffffffffffffffffffffffffff168152602001908152602001600020549050919050565b610a21611319565b610a2b6000611397565b565b6000610a38826109d1565b9050919050565b60008180610a4c336109d1565b1015610a8d576040517f08c379a0000000000000000000000000000000000000000000000000000000008152600401610a8490611d2d565b60405180910390fd5b610a983385856110a1565b600191505092915050565b6000600560009054906101000a900473ffffffffffffffffffffffffffffffffffffffff16905090565b606060048054610adc90611b56565b80601f0160208091040260200160405190810160405280929190818152602001828054610b0890611b56565b8015610b555780601f10610b2a57610100808354040283529160200191610b55565b820191906000526020600020905b815481529060010190602001808311610b3857829003601f168201915b5050505050905090565b600080610b6a610e42565b90506000610b788286610cb7565b905083811015610bbd576040517f08c379a0000000000000000000000000000000000000000000000000000000008152600401610bb490611dbf565b60405180910390fd5b610bca8286868403610e4a565b60019250505092915050565b600080610be1610e42565b9050610bee8185856110a1565b600191505092915050565b606060405180606001604052806026815260200161242060269139905090565b600660009054906101000a900473ffffffffffffffffffffffffffffffffffffffff1673ffffffffffffffffffffffffffffffffffffffff163373ffffffffffffffffffffffffffffffffffffffff1614610ca9576040517f08c379a0000000000000000000000000000000000000000000000000000000008152600401610ca090611e2b565b60405180910390fd5b610cb3828261145d565b5050565b6000600160008473ffffffffffffffffffffffffffffffffffffffff1673ffffffffffffffffffffffffffffffffffffffff16815260200190815260200160002060008373ffffffffffffffffffffffffffffffffffffffff1673ffffffffffffffffffffffffffffffffffffffff16815260200190815260200160002054905092915050565b8080610d49336109d1565b1015610d8a576040517f08c379a0000000000000000000000000000000000000000000000000000000008152600401610d8190611d2d565b60405180910390fd5b610d9433836115b4565b5050565b610da0611319565b600073ffffffffffffffffffffffffffffffffffffffff168173ffffffffffffffffffffffffffffffffffffffff161415610e10576040517f08c379a0000000000000000000000000000000000000000000000000000000008152600401610e0790611ebd565b60405180910390fd5b610e1981611397565b50565b600660009054906101000a900473ffffffffffffffffffffffffffffffffffffffff1681565b600033905090565b600073ffffffffffffffffffffffffffffffffffffffff168373ffffffffffffffffffffffffffffffffffffffff161415610eba576040517f08c379a0000000000000000000000000000000000000000000000000000000008152600401610eb190611f4f565b60405180910390fd5b600073ffffffffffffffffffffffffffffffffffffffff168273ffffffffffffffffffffffffffffffffffffffff161415610f2a576040517f08c379a0000000000000000000000000000000000000000000000000000000008152600401610f2190611fe1565b60405180910390fd5b80600160008573ffffffffffffffffffffffffffffffffffffffff1673ffffffffffffffffffffffffffffffffffffffff16815260200190815260200160002060008473ffffffffffffffffffffffffffffffffffffffff1673ffffffffffffffffffffffffffffffffffffffff168152602001908152602001600020819055508173ffffffffffffffffffffffffffffffffffffffff168373ffffffffffffffffffffffffffffffffffffffff167f8c5be1e5ebec7d5bd14f71427d1e84f3dd0314c0f7b2291e5b200ac8c7c3b925836040516110089190611965565b60405180910390a3505050565b60006110218484610cb7565b90507fffffffffffffffffffffffffffffffffffffffffffffffffffffffffffffffff811461109b578181101561108d576040517f08c379a00000000000000000000000000000000000000000000000000000000081526004016110849061204d565b60405180910390fd5b61109a8484848403610e4a565b5b50505050565b600073ffffffffffffffffffffffffffffffffffffffff168373ffffffffffffffffffffffffffffffffffffffff161415611111576040517f08c379a0000000000000000000000000000000000000000000000000000000008152600401611108906120df565b60405180910390fd5b600073ffffffffffffffffffffffffffffffffffffffff168273ffffffffffffffffffffffffffffffffffffffff161415611181576040517f08c379a000000000000000000000000000000000000000000000000000000000815260040161117890612171565b60405180910390fd5b61118c838383611782565b60008060008573ffffffffffffffffffffffffffffffffffffffff1673ffffffffffffffffffffffffffffffffffffffff16815260200190815260200160002054905081811015611212576040517f08c379a000000000000000000000000000000000000000000000000000000000815260040161120990612203565b60405180910390fd5b8181036000808673ffffffffffffffffffffffffffffffffffffffff1673ffffffffffffffffffffffffffffffffffffffff16815260200190815260200160002081905550816000808573ffffffffffffffffffffffffffffffffffffffff1673ffffffffffffffffffffffffffffffffffffffff168152602001908152602001600020600082825401925050819055508273ffffffffffffffffffffffffffffffffffffffff168473ffffffffffffffffffffffffffffffffffffffff167fddf252ad1be2c89b69c2b068fc378daa952ba7f163c4a11628f55a4df523b3ef846040516113009190611965565b60405180910390a3611313848484611787565b50505050565b611321610e42565b73ffffffffffffffffffffffffffffffffffffffff1661133f610aa3565b73ffffffffffffffffffffffffffffffffffffffff1614611395576040517f08c379a000000000000000000000000000000000000000000000000000000000815260040161138c9061226f565b60405180910390fd5b565b6000600560009054906101000a900473ffffffffffffffffffffffffffffffffffffffff16905081600560006101000a81548173ffffffffffffffffffffffffffffffffffffffff021916908373ffffffffffffffffffffffffffffffffffffffff1602179055508173ffffffffffffffffffffffffffffffffffffffff168173ffffffffffffffffffffffffffffffffffffffff167f8be0079c531659141344cd1fd0a4f28419497f9722a3daafe3b4186f6b6457e060405160405180910390a35050565b600073ffffffffffffffffffffffffffffffffffffffff168273ffffffffffffffffffffffffffffffffffffffff1614156114cd576040517f08c379a00000000000000000000000000000000000000000000000000000000081526004016114c4906122db565b60405180910390fd5b6114d960008383611782565b80600260008282546114eb9190611c8b565b92505081905550806000808473ffffffffffffffffffffffffffffffffffffffff1673ffffffffffffffffffffffffffffffffffffffff168152602001908152602001600020600082825401925050819055508173ffffffffffffffffffffffffffffffffffffffff16600073ffffffffffffffffffffffffffffffffffffffff167fddf252ad1be2c89b69c2b068fc378daa952ba7f163c4a11628f55a4df523b3ef8360405161159c9190611965565b60405180910390a36115b060008383611787565b5050565b600073ffffffffffffffffffffffffffffffffffffffff168273ffffffffffffffffffffffffffffffffffffffff161415611624576040517f08c379a000000000000000000000000000000000000000000000000000000000815260040161161b9061236d565b60405180910390fd5b61163082600083611782565b60008060008473ffffffffffffffffffffffffffffffffffffffff1673ffffffffffffffffffffffffffffffffffffffff168152602001908152602001600020549050818110156116b6576040517f08c379a00000000000000000000000000000000000000000000000000000000081526004016116ad906123ff565b60405180910390fd5b8181036000808573ffffffffffffffffffffffffffffffffffffffff1673ffffffffffffffffffffffffffffffffffffffff1681526020019081526020016000208190555081600260008282540392505081905550600073ffffffffffffffffffffffffffffffffffffffff168373ffffffffffffffffffffffffffffffffffffffff167fddf252ad1be2c89b69c2b068fc378daa952ba7f163c4a11628f55a4df523b3ef846040516117699190611965565b60405180910390a361177d83600084611787565b505050565b505050565b505050565b600081519050919050565b600082825260208201905092915050565b60005b838110156117c65780820151818401526020810190506117ab565b838111156117d5576000848401525b50505050565b6000601f19601f8301169050919050565b60006117f78261178c565b6118018185611797565b93506118118185602086016117a8565b61181a816117db565b840191505092915050565b6000602082019050818103600083015261183f81846117ec565b905092915050565b600080fd5b600073ffffffffffffffffffffffffffffffffffffffff82169050919050565b60006118778261184c565b9050919050565b6118878161186c565b811461189257600080fd5b50565b6000813590506118a48161187e565b92915050565b6000819050919050565b6118bd816118aa565b81146118c857600080fd5b50565b6000813590506118da816118b4565b92915050565b600080604083850312156118f7576118f6611847565b5b600061190585828601611895565b9250506020611916858286016118cb565b9150509250929050565b60008115159050919050565b61193581611920565b82525050565b6000602082019050611950600083018461192c565b92915050565b61195f816118aa565b82525050565b600060208201905061197a6000830184611956565b92915050565b60008060006060848603121561199957611998611847565b5b60006119a786828701611895565b93505060206119b886828701611895565b92505060406119c9868287016118cb565b9150509250925092565b600060ff82169050919050565b6119e9816119d3565b82525050565b6000602082019050611a0460008301846119e0565b92915050565b611a13816119d3565b8114611a1e57600080fd5b50565b600081359050611a3081611a0a565b92915050565b600060208284031215611a4c57611a4b611847565b5b6000611a5a84828501611a21565b91505092915050565b600060208284031215611a7957611a78611847565b5b6000611a8784828501611895565b91505092915050565b611a998161186c565b82525050565b6000602082019050611ab46000830184611a90565b92915050565b60008060408385031215611ad157611ad0611847565b5b6000611adf85828601611895565b9250506020611af085828601611895565b9150509250929050565b600060208284031215611b1057611b0f611847565b5b6000611b1e848285016118cb565b91505092915050565b7f4e487b7100000000000000000000000000000000000000000000000000000000600052602260045260246000fd5b60006002820490506001821680611b6e57607f821691505b60208210811415611b8257611b81611b27565b5b50919050565b600081519050611b97816118b4565b92915050565b600060208284031215611bb357611bb2611847565b5b6000611bc184828501611b88565b91505092915050565b7f4e6f7420656e6f75676820446567656e20546f6b656e7320746f20726564656560008201527f6d00000000000000000000000000000000000000000000000000000000000000602082015250565b6000611c26602183611797565b9150611c3182611bca565b604082019050919050565b60006020820190508181036000830152611c5581611c19565b9050919050565b7f4e487b7100000000000000000000000000000000000000000000000000000000600052601160045260246000fd5b6000611c96826118aa565b9150611ca1836118aa565b9250827fffffffffffffffffffffffffffffffffffffffffffffffffffffffffffffffff03821115611cd657611cd5611c5c565b5b828201905092915050565b7f496e73756666696369656e7420446567656e20546f6b656e0000000000000000600082015250565b6000611d17601883611797565b9150611d2282611ce1565b602082019050919050565b60006020820190508181036000830152611d4681611d0a565b9050919050565b7f45524332303a2064656372656173656420616c6c6f77616e63652062656c6f7760008201527f207a65726f000000000000000000000000000000000000000000000000000000602082015250565b6000611da9602583611797565b9150611db482611d4d565b604082019050919050565b60006020820190508181036000830152611dd881611d9c565b9050919050565b7f4f6e6c79206f776e65722063616e2063616c6c00000000000000000000000000600082015250565b6000611e15601383611797565b9150611e2082611ddf565b602082019050919050565b60006020820190508181036000830152611e4481611e08565b9050919050565b7f4f776e61626c653a206e6577206f776e657220697320746865207a65726f206160008201527f6464726573730000000000000000000000000000000000000000000000000000602082015250565b6000611ea7602683611797565b9150611eb282611e4b565b604082019050919050565b60006020820190508181036000830152611ed681611e9a565b9050919050565b7f45524332303a20617070726f76652066726f6d20746865207a65726f2061646460008201527f7265737300000000000000000000000000000000000000000000000000000000602082015250565b6000611f39602483611797565b9150611f4482611edd565b604082019050919050565b60006020820190508181036000830152611f6881611f2c565b9050919050565b7f45524332303a20617070726f766520746f20746865207a65726f20616464726560008201527f7373000000000000000000000000000000000000000000000000000000000000602082015250565b6000611fcb602283611797565b9150611fd682611f6f565b604082019050919050565b60006020820190508181036000830152611ffa81611fbe565b9050919050565b7f45524332303a20696e73756666696369656e7420616c6c6f77616e6365000000600082015250565b6000612037601d83611797565b915061204282612001565b602082019050919050565b600060208201905081810360008301526120668161202a565b9050919050565b7f45524332303a207472616e736665722066726f6d20746865207a65726f20616460008201527f6472657373000000000000000000000000000000000000000000000000000000602082015250565b60006120c9602583611797565b91506120d48261206d565b604082019050919050565b600060208201905081810360008301526120f8816120bc565b9050919050565b7f45524332303a207472616e7366657220746f20746865207a65726f206164647260008201527f6573730000000000000000000000000000000000000000000000000000000000602082015250565b600061215b602383611797565b9150612166826120ff565b604082019050919050565b6000602082019050818103600083015261218a8161214e565b9050919050565b7f45524332303a207472616e7366657220616d6f756e742065786365656473206260008201527f616c616e63650000000000000000000000000000000000000000000000000000602082015250565b60006121ed602683611797565b91506121f882612191565b604082019050919050565b6000602082019050818103600083015261221c816121e0565b9050919050565b7f4f776e61626c653a2063616c6c6572206973206e6f7420746865206f776e6572600082015250565b6000612259602083611797565b915061226482612223565b602082019050919050565b600060208201905081810360008301526122888161224c565b9050919050565b7f45524332303a206d696e7420746f20746865207a65726f206164647265737300600082015250565b60006122c5601f83611797565b91506122d08261228f565b602082019050919050565b600060208201905081810360008301526122f4816122b8565b9050919050565b7f45524332303a206275726e2066726f6d20746865207a65726f2061646472657360008201527f7300000000000000000000000000000000000000000000000000000000000000602082015250565b6000612357602183611797565b9150612362826122fb565b604082019050919050565b600060208201905081810360008301526123868161234a565b9050919050565b7f45524332303a206275726e20616d6f756e7420657863656564732062616c616e60008201527f6365000000000000000000000000000000000000000000000000000000000000602082015250565b60006123e9602283611797565b91506123f48261238d565b604082019050919050565b60006020820190508181036000830152612418816123dc565b905091905056fe53746f72653a20312e204865616c74682c20322e20536b696e732c20332e20456d626c656d73a26469706673582212200bc2ccc044e0dc317c33e2e31f070aa7479b95c36526e3caef27341ca22ab84164736f6c63430008090033",
  "linkReferences": {},
  "deployedLinkReferences": {}
}